{
  "_format": "hh-sol-artifact-1",
  "contractName": "ScholarshipPlatform",
  "sourceName": "contracts/ScholarshipPlatform.sol",
  "abi": [
    {
      "anonymous": false,
      "inputs": [
        {
          "indexed": true,
          "internalType": "address",
          "name": "applicant",
          "type": "address"
        },
        {
          "indexed": false,
          "internalType": "string",
          "name": "name",
          "type": "string"
        },
        {
          "indexed": false,
          "internalType": "uint256",
          "name": "marks",
          "type": "uint256"
        }
      ],
      "name": "ApplicationSubmitted",
      "type": "event"
    },
    {
      "anonymous": false,
      "inputs": [
        {
          "indexed": true,
          "internalType": "address",
          "name": "applicant",
          "type": "address"
        }
      ],
      "name": "ApplicationVerified",
      "type": "event"
    },
    {
      "anonymous": false,
      "inputs": [
        {
          "indexed": true,
          "internalType": "address",
          "name": "sponsor",
          "type": "address"
        },
        {
          "indexed": false,
          "internalType": "uint256",
          "name": "amount",
          "type": "uint256"
        },
        {
          "indexed": false,
          "internalType": "uint256",
          "name": "tokensIssued",
          "type": "uint256"
        }
      ],
      "name": "DonationReceived",
      "type": "event"
    },
    {
      "inputs": [
        {
          "internalType": "address",
          "name": "",
          "type": "address"
        }
      ],
      "name": "applicants",
      "outputs": [
        {
          "internalType": "string",
          "name": "name",
          "type": "string"
        },
        {
          "internalType": "uint256",
          "name": "marks",
          "type": "uint256"
        },
        {
          "internalType": "bool",
          "name": "isVerified",
          "type": "bool"
        },
        {
          "internalType": "string",
          "name": "proof",
          "type": "string"
        }
      ],
      "stateMutability": "view",
      "type": "function"
    },
    {
      "inputs": [],
      "name": "donate",
      "outputs": [],
      "stateMutability": "payable",
      "type": "function"
    },
    {
      "inputs": [
        {
          "internalType": "address",
          "name": "",
          "type": "address"
        }
      ],
      "name": "sponsors",
      "outputs": [
        {
          "internalType": "address",
          "name": "addr",
          "type": "address"
        },
        {
          "internalType": "uint256",
          "name": "donation",
          "type": "uint256"
        },
        {
          "internalType": "uint256",
          "name": "tokensIssued",
          "type": "uint256"
        }
      ],
      "stateMutability": "view",
      "type": "function"
    },
    {
      "inputs": [
        {
          "internalType": "string",
          "name": "name",
          "type": "string"
        },
        {
          "internalType": "uint256",
          "name": "marks",
          "type": "uint256"
        },
        {
          "internalType": "string",
          "name": "proof",
          "type": "string"
        }
      ],
      "name": "submitApplication",
      "outputs": [],
      "stateMutability": "nonpayable",
      "type": "function"
    },
    {
      "inputs": [],
      "name": "tokenRate",
      "outputs": [
        {
          "internalType": "uint256",
          "name": "",
          "type": "uint256"
        }
      ],
      "stateMutability": "view",
      "type": "function"
    },
    {
      "inputs": [],
      "name": "totalDonations",
      "outputs": [
        {
          "internalType": "uint256",
          "name": "",
          "type": "uint256"
        }
      ],
      "stateMutability": "view",
      "type": "function"
    },
    {
      "inputs": [
        {
          "internalType": "address",
          "name": "applicantAddress",
          "type": "address"
        }
      ],
      "name": "verifyApplication",
      "outputs": [],
      "stateMutability": "nonpayable",
      "type": "function"
    },
    {
      "inputs": [
        {
          "internalType": "address",
          "name": "applicantAddress",
          "type": "address"
        }
      ],
      "name": "verifyUtilization",
      "outputs": [
        {
          "internalType": "bool",
          "name": "",
          "type": "bool"
        }
      ],
      "stateMutability": "view",
      "type": "function"
    }
  ],
  "bytecode": "0x60806040526064600355348015601457600080fd5b50611246806100246000396000f3fe60806040526004361061007b5760003560e01c8063ccd668631161004e578063ccd668631461013a578063d35590c21461017a578063de2ed893146101b9578063ed88c68e146101e45761007b565b806331711884146100805780633c031691146100ab5780635f39b6b2146100d4578063873154b3146100fd575b600080fd5b34801561008c57600080fd5b506100956101ee565b6040516100a2919061087f565b60405180910390f35b3480156100b757600080fd5b506100d260048036038101906100cd919061090c565b6101f4565b005b3480156100e057600080fd5b506100fb60048036038101906100f69190610aab565b610319565b005b34801561010957600080fd5b50610124600480360381019061011f919061090c565b6104b1565b6040516101319190610b51565b60405180910390f35b34801561014657600080fd5b50610161600480360381019061015c919061090c565b610558565b6040516101719493929190610beb565b60405180910390f35b34801561018657600080fd5b506101a1600480360381019061019c919061090c565b6106a5565b6040516101b093929190610c4d565b60405180910390f35b3480156101c557600080fd5b506101ce6106ef565b6040516101db919061087f565b60405180910390f35b6101ec6106f5565b005b60035481565b6000600160008373ffffffffffffffffffffffffffffffffffffffff1673ffffffffffffffffffffffffffffffffffffffff1681526020019081526020016000206001015411610279576040517f08c379a000000000000000000000000000000000000000000000000000000000815260040161027090610cd0565b60405180910390fd5b60018060008373ffffffffffffffffffffffffffffffffffffffff1673ffffffffffffffffffffffffffffffffffffffff16815260200190815260200160002060020160006101000a81548160ff0219169083151502179055508073ffffffffffffffffffffffffffffffffffffffff167faaac88c2db9224cd02a507bbe11351f1ec8d13c0c8badb29b065a1b9693bcf5f60405160405180910390a250565b600083511161035d576040517f08c379a000000000000000000000000000000000000000000000000000000000815260040161035490610d3c565b60405180910390fd5b600082116103a0576040517f08c379a000000000000000000000000000000000000000000000000000000000815260040161039790610da8565b60405180910390fd5b604051806080016040528084815260200183815260200160001515815260200182815250600160003373ffffffffffffffffffffffffffffffffffffffff1673ffffffffffffffffffffffffffffffffffffffff16815260200190815260200160002060008201518160000190816104189190610fd4565b506020820151816001015560408201518160020160006101000a81548160ff02191690831515021790555060608201518160030190816104589190610fd4565b509050503373ffffffffffffffffffffffffffffffffffffffff167fca2fbca3c2f0cd5ce3f2f32ca15c959b33e44a937c9c423a2ef380030648bac284846040516104a49291906110a6565b60405180910390a2505050565b6000600160008373ffffffffffffffffffffffffffffffffffffffff1673ffffffffffffffffffffffffffffffffffffffff16815260200190815260200160002060020160009054906101000a900460ff16801561055157506000600160008473ffffffffffffffffffffffffffffffffffffffff1673ffffffffffffffffffffffffffffffffffffffff16815260200190815260200160002060010154115b9050919050565b600160205280600052604060002060009150905080600001805461057b90610df7565b80601f01602080910402602001604051908101604052809291908181526020018280546105a790610df7565b80156105f45780601f106105c9576101008083540402835291602001916105f4565b820191906000526020600020905b8154815290600101906020018083116105d757829003601f168201915b5050505050908060010154908060020160009054906101000a900460ff169080600301805461062290610df7565b80601f016020809104026020016040519081016040528092919081815260200182805461064e90610df7565b801561069b5780601f106106705761010080835404028352916020019161069b565b820191906000526020600020905b81548152906001019060200180831161067e57829003601f168201915b5050505050905084565b60006020528060005260406000206000915090508060000160009054906101000a900473ffffffffffffffffffffffffffffffffffffffff16908060010154908060020154905083565b60025481565b60003411610738576040517f08c379a000000000000000000000000000000000000000000000000000000000815260040161072f90611122565b60405180910390fd5b6000600354346107489190611171565b9050346000803373ffffffffffffffffffffffffffffffffffffffff1673ffffffffffffffffffffffffffffffffffffffff168152602001908152602001600020600101600082825461079b91906111b3565b92505081905550806000803373ffffffffffffffffffffffffffffffffffffffff1673ffffffffffffffffffffffffffffffffffffffff16815260200190815260200160002060020160008282546107f391906111b3565b92505081905550346002600082825461080c91906111b3565b925050819055503373ffffffffffffffffffffffffffffffffffffffff167f4b0304ab2f313234b1cea012339c8f8c3bf2c8bb357d81a579cfdb35d2e3d030348360405161085b9291906111e7565b60405180910390a250565b6000819050919050565b61087981610866565b82525050565b60006020820190506108946000830184610870565b92915050565b6000604051905090565b600080fd5b600080fd5b600073ffffffffffffffffffffffffffffffffffffffff82169050919050565b60006108d9826108ae565b9050919050565b6108e9816108ce565b81146108f457600080fd5b50565b600081359050610906816108e0565b92915050565b600060208284031215610922576109216108a4565b5b6000610930848285016108f7565b91505092915050565b600080fd5b600080fd5b6000601f19601f8301169050919050565b7f4e487b7100000000000000000000000000000000000000000000000000000000600052604160045260246000fd5b61098c82610943565b810181811067ffffffffffffffff821117156109ab576109aa610954565b5b80604052505050565b60006109be61089a565b90506109ca8282610983565b919050565b600067ffffffffffffffff8211156109ea576109e9610954565b5b6109f382610943565b9050602081019050919050565b82818337600083830152505050565b6000610a22610a1d846109cf565b6109b4565b905082815260208101848484011115610a3e57610a3d61093e565b5b610a49848285610a00565b509392505050565b600082601f830112610a6657610a65610939565b5b8135610a76848260208601610a0f565b91505092915050565b610a8881610866565b8114610a9357600080fd5b50565b600081359050610aa581610a7f565b92915050565b600080600060608486031215610ac457610ac36108a4565b5b600084013567ffffffffffffffff811115610ae257610ae16108a9565b5b610aee86828701610a51565b9350506020610aff86828701610a96565b925050604084013567ffffffffffffffff811115610b2057610b1f6108a9565b5b610b2c86828701610a51565b9150509250925092565b60008115159050919050565b610b4b81610b36565b82525050565b6000602082019050610b666000830184610b42565b92915050565b600081519050919050565b600082825260208201905092915050565b60005b83811015610ba6578082015181840152602081019050610b8b565b60008484015250505050565b6000610bbd82610b6c565b610bc78185610b77565b9350610bd7818560208601610b88565b610be081610943565b840191505092915050565b60006080820190508181036000830152610c058187610bb2565b9050610c146020830186610870565b610c216040830185610b42565b8181036060830152610c338184610bb2565b905095945050505050565b610c47816108ce565b82525050565b6000606082019050610c626000830186610c3e565b610c6f6020830185610870565b610c7c6040830184610870565b949350505050565b7f4170706c6963616e74206e6f7420666f756e6400000000000000000000000000600082015250565b6000610cba601383610b77565b9150610cc582610c84565b602082019050919050565b60006020820190508181036000830152610ce981610cad565b9050919050565b7f4e616d652063616e6e6f7420626520656d707479000000000000000000000000600082015250565b6000610d26601483610b77565b9150610d3182610cf0565b602082019050919050565b60006020820190508181036000830152610d5581610d19565b9050919050565b7f4d61726b73206d7573742062652067726561746572207468616e207a65726f00600082015250565b6000610d92601f83610b77565b9150610d9d82610d5c565b602082019050919050565b60006020820190508181036000830152610dc181610d85565b9050919050565b7f4e487b7100000000000000000000000000000000000000000000000000000000600052602260045260246000fd5b60006002820490506001821680610e0f57607f821691505b602082108103610e2257610e21610dc8565b5b50919050565b60008190508160005260206000209050919050565b60006020601f8301049050919050565b600082821b905092915050565b600060088302610e8a7fffffffffffffffffffffffffffffffffffffffffffffffffffffffffffffffff82610e4d565b610e948683610e4d565b95508019841693508086168417925050509392505050565b6000819050919050565b6000610ed1610ecc610ec784610866565b610eac565b610866565b9050919050565b6000819050919050565b610eeb83610eb6565b610eff610ef782610ed8565b848454610e5a565b825550505050565b600090565b610f14610f07565b610f1f818484610ee2565b505050565b5b81811015610f4357610f38600082610f0c565b600181019050610f25565b5050565b601f821115610f8857610f5981610e28565b610f6284610e3d565b81016020851015610f71578190505b610f85610f7d85610e3d565b830182610f24565b50505b505050565b600082821c905092915050565b6000610fab60001984600802610f8d565b1980831691505092915050565b6000610fc48383610f9a565b9150826002028217905092915050565b610fdd82610b6c565b67ffffffffffffffff811115610ff657610ff5610954565b5b6110008254610df7565b61100b828285610f47565b600060209050601f83116001811461103e576000841561102c578287015190505b6110368582610fb8565b86555061109e565b601f19841661104c86610e28565b60005b828110156110745784890151825560018201915060208501945060208101905061104f565b86831015611091578489015161108d601f891682610f9a565b8355505b6001600288020188555050505b505050505050565b600060408201905081810360008301526110c08185610bb2565b90506110cf6020830184610870565b9392505050565b7f4d7573742073656e642045544820746f20646f6e617465000000000000000000600082015250565b600061110c601783610b77565b9150611117826110d6565b602082019050919050565b6000602082019050818103600083015261113b816110ff565b9050919050565b7f4e487b7100000000000000000000000000000000000000000000000000000000600052601160045260246000fd5b600061117c82610866565b915061118783610866565b925082820261119581610866565b915082820484148315176111ac576111ab611142565b5b5092915050565b60006111be82610866565b91506111c983610866565b92508282019050808211156111e1576111e0611142565b5b92915050565b60006040820190506111fc6000830185610870565b6112096020830184610870565b939250505056fea264697066735822122072989e46d85059404cd4b1010f76e560861bbd9357d292d18895140c2952c43464736f6c634300081b0033",
  "linkReferences": {},
  "deployedLinkReferences": {}
}